{
  "contractName": "Voting",
  "abi": [
    {
      "inputs": [],
      "name": "totalCandidate1Votes",
      "outputs": [
        {
          "internalType": "uint256",
          "name": "",
          "type": "uint256"
        }
      ],
      "stateMutability": "view",
      "type": "function",
      "constant": true
    },
    {
      "inputs": [],
      "name": "totalCandidate2Votes",
      "outputs": [
        {
          "internalType": "uint256",
          "name": "",
          "type": "uint256"
        }
      ],
      "stateMutability": "view",
      "type": "function",
      "constant": true
    },
    {
      "inputs": [],
      "name": "totalVotes",
      "outputs": [
        {
          "internalType": "uint256",
          "name": "",
          "type": "uint256"
        }
      ],
      "stateMutability": "view",
      "type": "function",
      "constant": true
    },
    {
      "inputs": [
        {
          "internalType": "address",
          "name": "",
          "type": "address"
        }
      ],
      "name": "votes",
      "outputs": [
        {
          "internalType": "uint8",
          "name": "",
          "type": "uint8"
        }
      ],
      "stateMutability": "view",
      "type": "function",
      "constant": true
    },
    {
      "inputs": [
        {
          "internalType": "uint8",
          "name": "candidate",
          "type": "uint8"
        }
      ],
      "name": "vote",
      "outputs": [],
      "stateMutability": "nonpayable",
      "type": "function"
    },
    {
      "inputs": [
        {
          "internalType": "uint8",
          "name": "candidate",
          "type": "uint8"
        }
      ],
      "name": "getVoteCount",
      "outputs": [
        {
          "internalType": "uint256",
          "name": "",
          "type": "uint256"
        }
      ],
      "stateMutability": "view",
      "type": "function",
      "constant": true
    }
  ],
  "bytecode": "0x608060405234801561001057600080fd5b50610519806100206000396000f3fe608060405234801561001057600080fd5b50600436106100625760003560e01c80630d15fd771461006757806320e2d647146100855780639c6147d0146100a3578063b3f98adc146100d3578063d8bff5a5146100ef578063dfa27d2c1461011f575b600080fd5b61006f61013d565b60405161007c91906102b4565b60405180910390f35b61008d610143565b60405161009a91906102b4565b60405180910390f35b6100bd60048036038101906100b8919061030d565b610149565b6040516100ca91906102b4565b60405180910390f35b6100ed60048036038101906100e8919061030d565b61016b565b005b61010960048036038101906101049190610398565b610275565b60405161011691906103d4565b60405180910390f35b610127610295565b60405161013491906102b4565b60405180910390f35b60015481565b60035481565b600060018260ff1603610160576002549050610166565b60035490505b919050565b60018160ff1610158015610183575060028160ff1611155b6101c2576040517f08c379a00000000000000000000000000000000000000000000000000000000081526004016101b99061044c565b60405180910390fd5b806000803373ffffffffffffffffffffffffffffffffffffffff1673ffffffffffffffffffffffffffffffffffffffff16815260200190815260200160002060006101000a81548160ff021916908360ff1602179055506001600081548092919061022c9061049b565b919050555060018160ff1603610259576002600081548092919061024f9061049b565b9190505550610272565b6003600081548092919061026c9061049b565b91905055505b50565b60006020528060005260406000206000915054906101000a900460ff1681565b60025481565b6000819050919050565b6102ae8161029b565b82525050565b60006020820190506102c960008301846102a5565b92915050565b600080fd5b600060ff82169050919050565b6102ea816102d4565b81146102f557600080fd5b50565b600081359050610307816102e1565b92915050565b600060208284031215610323576103226102cf565b5b6000610331848285016102f8565b91505092915050565b600073ffffffffffffffffffffffffffffffffffffffff82169050919050565b60006103658261033a565b9050919050565b6103758161035a565b811461038057600080fd5b50565b6000813590506103928161036c565b92915050565b6000602082840312156103ae576103ad6102cf565b5b60006103bc84828501610383565b91505092915050565b6103ce816102d4565b82525050565b60006020820190506103e960008301846103c5565b92915050565b600082825260208201905092915050565b7f496e76616c69642063616e6469646174652e0000000000000000000000000000600082015250565b60006104366012836103ef565b915061044182610400565b602082019050919050565b6000602082019050818103600083015261046581610429565b9050919050565b7f4e487b7100000000000000000000000000000000000000000000000000000000600052601160045260246000fd5b60006104a68261029b565b91507fffffffffffffffffffffffffffffffffffffffffffffffffffffffffffffffff82036104d8576104d761046c565b5b60018201905091905056fea2646970667358221220f981c8bf7be88f5db19fe6680fe9305b8670712763aceedb2b8b8cfac1e0f14464736f6c63430008120033",
  "immutableReferences": {},
  "source": "// SPDX-License-Identifier: GPL-3.0\r\npragma solidity ^0.8.17;\r\ncontract Voting {\r\n    mapping (address => uint8) public votes;\r\n    uint public totalVotes;\r\n    uint public totalCandidate1Votes;\r\n    uint public totalCandidate2Votes;\r\n\r\n    function vote(uint8 candidate) public {\r\n        require(candidate >= 1 && candidate <= 2, \"Invalid candidate.\");\r\n\r\n        votes[msg.sender] = candidate;\r\n        totalVotes++;\r\n        if (candidate == 1) {\r\n            totalCandidate1Votes++;\r\n        } else {\r\n            totalCandidate2Votes++;\r\n        }\r\n    }\r\n\r\n    function getVoteCount(uint8 candidate) public view returns (uint) {\r\n        if (candidate == 1) {\r\n            return totalCandidate1Votes;\r\n        } else {\r\n            return totalCandidate2Votes;\r\n        }\r\n    }\r\n}",
  "sourcePath": "D:\\hackthon\\contracts\\Voting.sol",
  "compiler": {
    "name": "solc",
    "version": "0.8.18+commit.87f61d96.Emscripten.clang"
  },
  "schemaVersion": "3.4.11",
  "updatedAt": "2023-02-12T19:10:47.428Z",
  "networkType": "ethereum",
  "devdoc": {
    "kind": "dev",
    "methods": {},
    "version": 1
  },
  "userdoc": {
    "kind": "user",
    "methods": {},
    "version": 1
  }
}